{
  "_format": "hh-sol-artifact-1",
  "contractName": "Raffle",
  "sourceName": "contracts/Raffle.sol",
  "abi": [
    {
      "inputs": [
        {
          "internalType": "address",
          "name": "vrfCoordinatorV2",
          "type": "address"
        },
        {
          "internalType": "uint256",
          "name": "entranceFee",
          "type": "uint256"
        },
        {
          "internalType": "bytes32",
          "name": "gasLane",
          "type": "bytes32"
        },
        {
          "internalType": "uint64",
          "name": "subscriptionId",
          "type": "uint64"
        },
        {
          "internalType": "uint32",
          "name": "callbackGasLimit",
          "type": "uint32"
        },
        {
          "internalType": "uint256",
          "name": "interval",
          "type": "uint256"
        }
      ],
      "stateMutability": "nonpayable",
      "type": "constructor"
    },
    {
      "inputs": [
        {
          "internalType": "address",
          "name": "have",
          "type": "address"
        },
        {
          "internalType": "address",
          "name": "want",
          "type": "address"
        }
      ],
      "name": "OnlyCoordinatorCanFulfill",
      "type": "error"
    },
    {
      "inputs": [],
      "name": "RAFFLE_NotOpen",
      "type": "error"
    },
    {
      "inputs": [],
      "name": "RAFFLE__NotEnoughEthEntered",
      "type": "error"
    },
    {
      "inputs": [],
      "name": "RAFFLE__TransferFailed",
      "type": "error"
    },
    {
      "inputs": [
        {
          "internalType": "uint256",
          "name": "currentBalance",
          "type": "uint256"
        },
        {
          "internalType": "uint256",
          "name": "numberOfPlayers",
          "type": "uint256"
        },
        {
          "internalType": "uint256",
          "name": "raffleState",
          "type": "uint256"
        }
      ],
      "name": "RAFFLE__UpKeepNotNeeded",
      "type": "error"
    },
    {
      "anonymous": false,
      "inputs": [
        {
          "indexed": true,
          "internalType": "address",
          "name": "player",
          "type": "address"
        }
      ],
      "name": "RaffleEntry",
      "type": "event"
    },
    {
      "anonymous": false,
      "inputs": [
        {
          "indexed": true,
          "internalType": "uint256",
          "name": "requestId",
          "type": "uint256"
        }
      ],
      "name": "RequestedRaffleWinner",
      "type": "event"
    },
    {
      "anonymous": false,
      "inputs": [
        {
          "indexed": true,
          "internalType": "address",
          "name": "winner",
          "type": "address"
        }
      ],
      "name": "WinnerPicked",
      "type": "event"
    },
    {
      "inputs": [
        {
          "internalType": "bytes",
          "name": "",
          "type": "bytes"
        }
      ],
      "name": "checkUpkeep",
      "outputs": [
        {
          "internalType": "bool",
          "name": "upkeepNeeded",
          "type": "bool"
        },
        {
          "internalType": "bytes",
          "name": "",
          "type": "bytes"
        }
      ],
      "stateMutability": "nonpayable",
      "type": "function"
    },
    {
      "inputs": [],
      "name": "enterRaffle",
      "outputs": [],
      "stateMutability": "payable",
      "type": "function"
    },
    {
      "inputs": [],
      "name": "getEntranceFee",
      "outputs": [
        {
          "internalType": "uint256",
          "name": "",
          "type": "uint256"
        }
      ],
      "stateMutability": "view",
      "type": "function"
    },
    {
      "inputs": [],
      "name": "getLatestTimeStamp",
      "outputs": [
        {
          "internalType": "uint256",
          "name": "",
          "type": "uint256"
        }
      ],
      "stateMutability": "view",
      "type": "function"
    },
    {
      "inputs": [],
      "name": "getNumWords",
      "outputs": [
        {
          "internalType": "uint256",
          "name": "",
          "type": "uint256"
        }
      ],
      "stateMutability": "pure",
      "type": "function"
    },
    {
      "inputs": [],
      "name": "getNumberOfPlayers",
      "outputs": [
        {
          "internalType": "uint256",
          "name": "",
          "type": "uint256"
        }
      ],
      "stateMutability": "view",
      "type": "function"
    },
    {
      "inputs": [
        {
          "internalType": "uint256",
          "name": "index",
          "type": "uint256"
        }
      ],
      "name": "getPlayers",
      "outputs": [
        {
          "internalType": "address",
          "name": "",
          "type": "address"
        }
      ],
      "stateMutability": "view",
      "type": "function"
    },
    {
      "inputs": [],
      "name": "getRaffleState",
      "outputs": [
        {
          "internalType": "enum Raffle.RaffleState",
          "name": "",
          "type": "uint8"
        }
      ],
      "stateMutability": "view",
      "type": "function"
    },
    {
      "inputs": [],
      "name": "getRecentWinner",
      "outputs": [
        {
          "internalType": "address",
          "name": "",
          "type": "address"
        }
      ],
      "stateMutability": "view",
      "type": "function"
    },
    {
      "inputs": [
        {
          "internalType": "bytes",
          "name": "",
          "type": "bytes"
        }
      ],
      "name": "performUpkeep",
      "outputs": [],
      "stateMutability": "nonpayable",
      "type": "function"
    },
    {
      "inputs": [
        {
          "internalType": "uint256",
          "name": "requestId",
          "type": "uint256"
        },
        {
          "internalType": "uint256[]",
          "name": "randomWords",
          "type": "uint256[]"
        }
      ],
      "name": "rawFulfillRandomWords",
      "outputs": [],
      "stateMutability": "nonpayable",
      "type": "function"
    }
  ],
  "bytecode": "0x6101606040523480156200001257600080fd5b506040516200174a3803806200174a833981810160405281019062000038919062000294565b858073ffffffffffffffffffffffffffffffffffffffff1660808173ffffffffffffffffffffffffffffffffffffffff1681525050508573ffffffffffffffffffffffffffffffffffffffff1660c08173ffffffffffffffffffffffffffffffffffffffff16815250508460a081815250508360e081815250508267ffffffffffffffff166101008167ffffffffffffffff16815250508163ffffffff166101208163ffffffff16815250506000600160146101000a81548160ff021916908360018111156200010d576200010c62000330565b5b0217905550426002819055508061014081815250505050505050506200035f565b600080fd5b600073ffffffffffffffffffffffffffffffffffffffff82169050919050565b6000620001608262000133565b9050919050565b620001728162000153565b81146200017e57600080fd5b50565b600081519050620001928162000167565b92915050565b6000819050919050565b620001ad8162000198565b8114620001b957600080fd5b50565b600081519050620001cd81620001a2565b92915050565b6000819050919050565b620001e881620001d3565b8114620001f457600080fd5b50565b6000815190506200020881620001dd565b92915050565b600067ffffffffffffffff82169050919050565b6200022d816200020e565b81146200023957600080fd5b50565b6000815190506200024d8162000222565b92915050565b600063ffffffff82169050919050565b6200026e8162000253565b81146200027a57600080fd5b50565b6000815190506200028e8162000263565b92915050565b60008060008060008060c08789031215620002b457620002b36200012e565b5b6000620002c489828a0162000181565b9650506020620002d789828a01620001bc565b9550506040620002ea89828a01620001f7565b9450506060620002fd89828a016200023c565b93505060806200031089828a016200027d565b92505060a06200032389828a01620001bc565b9150509295509295509295565b7f4e487b7100000000000000000000000000000000000000000000000000000000600052602160045260246000fd5b60805160a05160c05160e051610100516101205161014051611382620003c860003960006107a50152600061062901526000610606015260006105e5015260006105a901526000818161027e015261037b0152600081816102bb015261030f01526113826000f3fe60806040526004361061009c5760003560e01c80634585e33b116100645780634585e33b14610155578063460e20491461017e578063473f1ddc146101bb57806353a2c19a146101e65780636e04ff0d14610211578063fd6673f51461024f5761009c565b806309bc33a7146100a1578063115cbaf5146100cc5780631fe543e3146100f75780632cfcc53914610120578063320229eb1461012a575b600080fd5b3480156100ad57600080fd5b506100b661027a565b6040516100c39190610b0c565b60405180910390f35b3480156100d857600080fd5b506100e16102a2565b6040516100ee9190610b9e565b60405180910390f35b34801561010357600080fd5b5061011e60048036038101906101199190610d52565b6102b9565b005b610128610379565b005b34801561013657600080fd5b5061013f6104e8565b60405161014c9190610b0c565b60405180910390f35b34801561016157600080fd5b5061017c60048036038101906101779190610e09565b6104f2565b005b34801561018a57600080fd5b506101a560048036038101906101a09190610e56565b6106e2565b6040516101b29190610ec4565b60405180910390f35b3480156101c757600080fd5b506101d0610729565b6040516101dd9190610ec4565b60405180910390f35b3480156101f257600080fd5b506101fb610753565b6040516102089190610b0c565b60405180910390f35b34801561021d57600080fd5b5061023860048036038101906102339190610f94565b610762565b604051610246929190611077565b60405180910390f35b34801561025b57600080fd5b5061026461080f565b6040516102719190610b0c565b60405180910390f35b60007f0000000000000000000000000000000000000000000000000000000000000000905090565b6000600160149054906101000a900460ff16905090565b7f000000000000000000000000000000000000000000000000000000000000000073ffffffffffffffffffffffffffffffffffffffff163373ffffffffffffffffffffffffffffffffffffffff161461036b57337f00000000000000000000000000000000000000000000000000000000000000006040517f1cf993f40000000000000000000000000000000000000000000000000000000081526004016103629291906110a7565b60405180910390fd5b610375828261081b565b5050565b7f00000000000000000000000000000000000000000000000000000000000000003410156103d3576040517fb2f4952600000000000000000000000000000000000000000000000000000000815260040160405180910390fd5b600060018111156103e7576103e6610b27565b5b600160149054906101000a900460ff16600181111561040957610408610b27565b5b14610440576040517f5994093000000000000000000000000000000000000000000000000000000000815260040160405180910390fd5b6000339080600181540180825580915050600190039060005260206000200160009091909190916101000a81548173ffffffffffffffffffffffffffffffffffffffff021916908373ffffffffffffffffffffffffffffffffffffffff1602179055503373ffffffffffffffffffffffffffffffffffffffff167fd94a33c4a354779175d16cd63d2aaa684e15d7366be045c32f546e728266bcf060405160405180910390a2565b6000600254905090565b600061050c60405180602001604052806000815250610762565b5090508061057b5747600080549050600160149054906101000a900460ff16600181111561053d5761053c610b27565b5b6040517f2e69033c000000000000000000000000000000000000000000000000000000008152600401610572939291906110d0565b60405180910390fd5b60018060146101000a81548160ff021916908360018111156105a05761059f610b27565b5b021790555060007f000000000000000000000000000000000000000000000000000000000000000073ffffffffffffffffffffffffffffffffffffffff16635d3b1d307f00000000000000000000000000000000000000000000000000000000000000007f000000000000000000000000000000000000000000000000000000000000000060037f000000000000000000000000000000000000000000000000000000000000000060016040518663ffffffff1660e01b815260040161066a95949392919061117f565b6020604051808303816000875af1158015610689573d6000803e3d6000fd5b505050506040513d601f19601f820116820180604052508101906106ad91906111e7565b9050807fcd6e45c8998311cab7e9d4385596cac867e20a0587194b954fa3a731c93ce78b60405160405180910390a250505050565b60008082815481106106f7576106f6611214565b5b9060005260206000200160009054906101000a900473ffffffffffffffffffffffffffffffffffffffff169050919050565b6000600160009054906101000a900473ffffffffffffffffffffffffffffffffffffffff16905090565b6000600163ffffffff16905090565b600060606000600160149054906101000a900460ff16600181111561078a57610789610b27565b5b6000600181111561079e5761079d610b27565b5b14905060007f0000000000000000000000000000000000000000000000000000000000000000600254426107d29190611272565b119050600080600080549050119050600080471190508380156107f25750825b80156107fb5750815b80156108045750805b955050505050915091565b60008080549050905090565b600080805490508260008151811061083657610835611214565b5b602002602001015161084891906112d5565b9050600080828154811061085f5761085e611214565b5b9060005260206000200160009054906101000a900473ffffffffffffffffffffffffffffffffffffffff16905080600160006101000a81548173ffffffffffffffffffffffffffffffffffffffff021916908373ffffffffffffffffffffffffffffffffffffffff1602179055506000600160146101000a81548160ff021916908360018111156108f3576108f2610b27565b5b0217905550600067ffffffffffffffff81111561091357610912610c0f565b5b6040519080825280602002602001820160405280156109415781602001602082028036833780820191505090505b5060009080519060200190610957929190610a4c565b504260028190555060008173ffffffffffffffffffffffffffffffffffffffff164760405161098590611337565b60006040518083038185875af1925050503d80600081146109c2576040519150601f19603f3d011682016040523d82523d6000602084013e6109c7565b606091505b5050905080610a02576040517fd219d04e00000000000000000000000000000000000000000000000000000000815260040160405180910390fd5b8173ffffffffffffffffffffffffffffffffffffffff167f5b690ec4a06fe979403046eaeea5b3ce38524683c3001f662c8b5a829632f7df60405160405180910390a25050505050565b828054828255906000526020600020908101928215610ac5579160200282015b82811115610ac45782518260006101000a81548173ffffffffffffffffffffffffffffffffffffffff021916908373ffffffffffffffffffffffffffffffffffffffff16021790555091602001919060010190610a6c565b5b509050610ad29190610ad6565b5090565b5b80821115610aef576000816000905550600101610ad7565b5090565b6000819050919050565b610b0681610af3565b82525050565b6000602082019050610b216000830184610afd565b92915050565b7f4e487b7100000000000000000000000000000000000000000000000000000000600052602160045260246000fd5b60028110610b6757610b66610b27565b5b50565b6000819050610b7882610b56565b919050565b6000610b8882610b6a565b9050919050565b610b9881610b7d565b82525050565b6000602082019050610bb36000830184610b8f565b92915050565b6000604051905090565b600080fd5b600080fd5b610bd681610af3565b8114610be157600080fd5b50565b600081359050610bf381610bcd565b92915050565b600080fd5b6000601f19601f8301169050919050565b7f4e487b7100000000000000000000000000000000000000000000000000000000600052604160045260246000fd5b610c4782610bfe565b810181811067ffffffffffffffff82111715610c6657610c65610c0f565b5b80604052505050565b6000610c79610bb9565b9050610c858282610c3e565b919050565b600067ffffffffffffffff821115610ca557610ca4610c0f565b5b602082029050602081019050919050565b600080fd5b6000610cce610cc984610c8a565b610c6f565b90508083825260208201905060208402830185811115610cf157610cf0610cb6565b5b835b81811015610d1a5780610d068882610be4565b845260208401935050602081019050610cf3565b5050509392505050565b600082601f830112610d3957610d38610bf9565b5b8135610d49848260208601610cbb565b91505092915050565b60008060408385031215610d6957610d68610bc3565b5b6000610d7785828601610be4565b925050602083013567ffffffffffffffff811115610d9857610d97610bc8565b5b610da485828601610d24565b9150509250929050565b600080fd5b60008083601f840112610dc957610dc8610bf9565b5b8235905067ffffffffffffffff811115610de657610de5610dae565b5b602083019150836001820283011115610e0257610e01610cb6565b5b9250929050565b60008060208385031215610e2057610e1f610bc3565b5b600083013567ffffffffffffffff811115610e3e57610e3d610bc8565b5b610e4a85828601610db3565b92509250509250929050565b600060208284031215610e6c57610e6b610bc3565b5b6000610e7a84828501610be4565b91505092915050565b600073ffffffffffffffffffffffffffffffffffffffff82169050919050565b6000610eae82610e83565b9050919050565b610ebe81610ea3565b82525050565b6000602082019050610ed96000830184610eb5565b92915050565b600080fd5b600067ffffffffffffffff821115610eff57610efe610c0f565b5b610f0882610bfe565b9050602081019050919050565b82818337600083830152505050565b6000610f37610f3284610ee4565b610c6f565b905082815260208101848484011115610f5357610f52610edf565b5b610f5e848285610f15565b509392505050565b600082601f830112610f7b57610f7a610bf9565b5b8135610f8b848260208601610f24565b91505092915050565b600060208284031215610faa57610fa9610bc3565b5b600082013567ffffffffffffffff811115610fc857610fc7610bc8565b5b610fd484828501610f66565b91505092915050565b60008115159050919050565b610ff281610fdd565b82525050565b600081519050919050565b600082825260208201905092915050565b60005b83811015611032578082015181840152602081019050611017565b60008484015250505050565b600061104982610ff8565b6110538185611003565b9350611063818560208601611014565b61106c81610bfe565b840191505092915050565b600060408201905061108c6000830185610fe9565b818103602083015261109e818461103e565b90509392505050565b60006040820190506110bc6000830185610eb5565b6110c96020830184610eb5565b9392505050565b60006060820190506110e56000830186610afd565b6110f26020830185610afd565b6110ff6040830184610afd565b949350505050565b6000819050919050565b61111a81611107565b82525050565b600067ffffffffffffffff82169050919050565b61113d81611120565b82525050565b600061ffff82169050919050565b61115a81611143565b82525050565b600063ffffffff82169050919050565b61117981611160565b82525050565b600060a0820190506111946000830188611111565b6111a16020830187611134565b6111ae6040830186611151565b6111bb6060830185611170565b6111c86080830184611170565b9695505050505050565b6000815190506111e181610bcd565b92915050565b6000602082840312156111fd576111fc610bc3565b5b600061120b848285016111d2565b91505092915050565b7f4e487b7100000000000000000000000000000000000000000000000000000000600052603260045260246000fd5b7f4e487b7100000000000000000000000000000000000000000000000000000000600052601160045260246000fd5b600061127d82610af3565b915061128883610af3565b92508282039050818111156112a05761129f611243565b5b92915050565b7f4e487b7100000000000000000000000000000000000000000000000000000000600052601260045260246000fd5b60006112e082610af3565b91506112eb83610af3565b9250826112fb576112fa6112a6565b5b828206905092915050565b600081905092915050565b50565b6000611321600083611306565b915061132c82611311565b600082019050919050565b600061134282611314565b915081905091905056fea2646970667358221220a51c0bcfc103336191d0dc44e29a453b06c37ce698212a5b315331b344c3e9d164736f6c63430008110033",
  "linkReferences": {},
  "deployedLinkReferences": {}
}