{
  "_format": "hh-sol-artifact-1",
  "contractName": "Raffle",
  "sourceName": "contracts/Raffle.sol",
  "abi": [
    {
      "inputs": [
        {
          "internalType": "address",
          "name": "vrfCoordinatorV2",
          "type": "address"
        },
        {
          "internalType": "uint256",
          "name": "entranceFee",
          "type": "uint256"
        },
        {
          "internalType": "bytes32",
          "name": "gasLane",
          "type": "bytes32"
        },
        {
          "internalType": "uint64",
          "name": "subscriptionId",
          "type": "uint64"
        },
        {
          "internalType": "uint32",
          "name": "callbackGasLimit",
          "type": "uint32"
        },
        {
          "internalType": "uint256",
          "name": "interval",
          "type": "uint256"
        }
      ],
      "stateMutability": "nonpayable",
      "type": "constructor"
    },
    {
      "inputs": [
        {
          "internalType": "address",
          "name": "have",
          "type": "address"
        },
        {
          "internalType": "address",
          "name": "want",
          "type": "address"
        }
      ],
      "name": "OnlyCoordinatorCanFulfill",
      "type": "error"
    },
    {
      "inputs": [],
      "name": "RAFFLE_NotOpen",
      "type": "error"
    },
    {
      "inputs": [],
      "name": "RAFFLE__NotEnoughEthEntered",
      "type": "error"
    },
    {
      "inputs": [],
      "name": "RAFFLE__TransferFailed",
      "type": "error"
    },
    {
      "inputs": [
        {
          "internalType": "uint256",
          "name": "currentBalance",
          "type": "uint256"
        },
        {
          "internalType": "uint256",
          "name": "numberOfPlayers",
          "type": "uint256"
        },
        {
          "internalType": "uint256",
          "name": "raffleState",
          "type": "uint256"
        }
      ],
      "name": "RAFFLE__UpKeepNotNeeded",
      "type": "error"
    },
    {
      "anonymous": false,
      "inputs": [
        {
          "indexed": true,
          "internalType": "address",
          "name": "player",
          "type": "address"
        }
      ],
      "name": "RaffleEntry",
      "type": "event"
    },
    {
      "anonymous": false,
      "inputs": [
        {
          "indexed": true,
          "internalType": "uint256",
          "name": "requestId",
          "type": "uint256"
        }
      ],
      "name": "RequestedRaffleWinner",
      "type": "event"
    },
    {
      "anonymous": false,
      "inputs": [
        {
          "indexed": true,
          "internalType": "address",
          "name": "winner",
          "type": "address"
        }
      ],
      "name": "WinnerPicked",
      "type": "event"
    },
    {
      "inputs": [
        {
          "internalType": "bytes",
          "name": "",
          "type": "bytes"
        }
      ],
      "name": "checkUpkeep",
      "outputs": [
        {
          "internalType": "bool",
          "name": "upkeepNeeded",
          "type": "bool"
        },
        {
          "internalType": "bytes",
          "name": "",
          "type": "bytes"
        }
      ],
      "stateMutability": "nonpayable",
      "type": "function"
    },
    {
      "inputs": [],
      "name": "enterRaffle",
      "outputs": [],
      "stateMutability": "payable",
      "type": "function"
    },
    {
      "inputs": [],
      "name": "getEntranceFee",
      "outputs": [
        {
          "internalType": "uint256",
          "name": "",
          "type": "uint256"
        }
      ],
      "stateMutability": "view",
      "type": "function"
    },
    {
      "inputs": [],
      "name": "getInterval",
      "outputs": [
        {
          "internalType": "uint256",
          "name": "",
          "type": "uint256"
        }
      ],
      "stateMutability": "view",
      "type": "function"
    },
    {
      "inputs": [],
      "name": "getLatestTimeStamp",
      "outputs": [
        {
          "internalType": "uint256",
          "name": "",
          "type": "uint256"
        }
      ],
      "stateMutability": "view",
      "type": "function"
    },
    {
      "inputs": [],
      "name": "getNumWords",
      "outputs": [
        {
          "internalType": "uint256",
          "name": "",
          "type": "uint256"
        }
      ],
      "stateMutability": "pure",
      "type": "function"
    },
    {
      "inputs": [],
      "name": "getNumberOfPlayers",
      "outputs": [
        {
          "internalType": "uint256",
          "name": "",
          "type": "uint256"
        }
      ],
      "stateMutability": "view",
      "type": "function"
    },
    {
      "inputs": [],
      "name": "getNumberOfRequestConfirmations",
      "outputs": [
        {
          "internalType": "uint256",
          "name": "",
          "type": "uint256"
        }
      ],
      "stateMutability": "pure",
      "type": "function"
    },
    {
      "inputs": [
        {
          "internalType": "uint256",
          "name": "index",
          "type": "uint256"
        }
      ],
      "name": "getPlayer",
      "outputs": [
        {
          "internalType": "address",
          "name": "",
          "type": "address"
        }
      ],
      "stateMutability": "view",
      "type": "function"
    },
    {
      "inputs": [],
      "name": "getRaffleState",
      "outputs": [
        {
          "internalType": "enum Raffle.RaffleState",
          "name": "",
          "type": "uint8"
        }
      ],
      "stateMutability": "view",
      "type": "function"
    },
    {
      "inputs": [],
      "name": "getRecentWinner",
      "outputs": [
        {
          "internalType": "address",
          "name": "",
          "type": "address"
        }
      ],
      "stateMutability": "view",
      "type": "function"
    },
    {
      "inputs": [
        {
          "internalType": "bytes",
          "name": "",
          "type": "bytes"
        }
      ],
      "name": "performUpkeep",
      "outputs": [],
      "stateMutability": "nonpayable",
      "type": "function"
    },
    {
      "inputs": [
        {
          "internalType": "uint256",
          "name": "requestId",
          "type": "uint256"
        },
        {
          "internalType": "uint256[]",
          "name": "randomWords",
          "type": "uint256[]"
        }
      ],
      "name": "rawFulfillRandomWords",
      "outputs": [],
      "stateMutability": "nonpayable",
      "type": "function"
    }
  ],
  "bytecode": "0x6101606040523480156200001257600080fd5b5060405162001f5a38038062001f5a833981810160405281019062000038919062000393565b858073ffffffffffffffffffffffffffffffffffffffff1660808173ffffffffffffffffffffffffffffffffffffffff1681525050506200008a67c6929a3f417fe0ce60c01b6200022a60201b60201c565b620000a6675f261b97d830587660c01b6200022a60201b60201c565b8573ffffffffffffffffffffffffffffffffffffffff1660c08173ffffffffffffffffffffffffffffffffffffffff1681525050620000f667b66daadba024e89460c01b6200022a60201b60201c565b8460a081815250506200011a67f9492e4c38266c9660c01b6200022a60201b60201c565b8360e081815250506200013e6729494aef2c60a41160c01b6200022a60201b60201c565b8267ffffffffffffffff166101008167ffffffffffffffff168152505062000177676cef30973f3388db60c01b6200022a60201b60201c565b8163ffffffff166101208163ffffffff1681525050620001a86745d2ec739b49b4e060c01b6200022a60201b60201c565b6000600160146101000a81548160ff02191690836001811115620001d157620001d06200042f565b5b0217905550620001f267adfe14ad4159ccb860c01b6200022a60201b60201c565b426002819055506200021567b0b109d5471e307d60c01b6200022a60201b60201c565b8061014081815250505050505050506200045e565b50565b600080fd5b600073ffffffffffffffffffffffffffffffffffffffff82169050919050565b60006200025f8262000232565b9050919050565b620002718162000252565b81146200027d57600080fd5b50565b600081519050620002918162000266565b92915050565b6000819050919050565b620002ac8162000297565b8114620002b857600080fd5b50565b600081519050620002cc81620002a1565b92915050565b6000819050919050565b620002e781620002d2565b8114620002f357600080fd5b50565b6000815190506200030781620002dc565b92915050565b600067ffffffffffffffff82169050919050565b6200032c816200030d565b81146200033857600080fd5b50565b6000815190506200034c8162000321565b92915050565b600063ffffffff82169050919050565b6200036d8162000352565b81146200037957600080fd5b50565b6000815190506200038d8162000362565b92915050565b60008060008060008060c08789031215620003b357620003b26200022d565b5b6000620003c389828a0162000280565b9650506020620003d689828a01620002bb565b9550506040620003e989828a01620002f6565b9450506060620003fc89828a016200033b565b93505060806200040f89828a016200037c565b92505060a06200042289828a01620002bb565b9150509295509295509295565b7f4e487b7100000000000000000000000000000000000000000000000000000000600052602160045260246000fd5b60805160a05160c05160e051610100516101205161014051611a8c620004ce60003960008181610bcf0152610cdd0152600061099601526000610973015260006109520152600061091601526000818161033601526104ab0152600081816103af01526104030152611a8c6000f3fe6080604052600436106100c25760003560e01c80634585e33b1161007f5780636e04ff0d116100595780636e04ff0d1461022557806391ad27b414610263578063e55ae4e81461028e578063fd6673f5146102cb576100c2565b80634585e33b146101a6578063473f1ddc146101cf57806353a2c19a146101fa576100c2565b806309bc33a7146100c7578063115cbaf5146100f25780631fe543e31461011d5780632cfcc53914610146578063320229eb1461015057806338a312451461017b575b600080fd5b3480156100d357600080fd5b506100dc6102f6565b6040516100e99190611216565b60405180910390f35b3480156100fe57600080fd5b5061010761035a565b60405161011491906112a8565b60405180910390f35b34801561012957600080fd5b50610144600480360381019061013f919061145c565b6103ad565b005b61014e61046d565b005b34801561015c57600080fd5b506101656106f4565b6040516101729190611216565b60405180910390f35b34801561018757600080fd5b5061019061073a565b60405161019d9190611216565b60405180910390f35b3480156101b257600080fd5b506101cd60048036038101906101c89190611513565b610783565b005b3480156101db57600080fd5b506101e4610a77565b6040516101f191906115a1565b60405180910390f35b34801561020657600080fd5b5061020f610add565b60405161021c9190611216565b60405180910390f35b34801561023157600080fd5b5061024c60048036038101906102479190611671565b610b28565b60405161025a929190611754565b60405180910390f35b34801561026f57600080fd5b50610278610c9d565b6040516102859190611216565b60405180910390f35b34801561029a57600080fd5b506102b560048036038101906102b09190611784565b610d01565b6040516102c291906115a1565b60405180910390f35b3480156102d757600080fd5b506102e0610d85565b6040516102ed9190611216565b60405180910390f35b600061030c67b50a8c1ef8f1042760c01b610dce565b610320679aaace0bee5938e860c01b610dce565b6103346783c58e22f2642afb60c01b610dce565b7f0000000000000000000000000000000000000000000000000000000000000000905090565b600061037067d5e37641e20a877960c01b610dce565b6103846757e598dfbc745b9160c01b610dce565b610398677be98eda45f2d96160c01b610dce565b600160149054906101000a900460ff16905090565b7f000000000000000000000000000000000000000000000000000000000000000073ffffffffffffffffffffffffffffffffffffffff163373ffffffffffffffffffffffffffffffffffffffff161461045f57337f00000000000000000000000000000000000000000000000000000000000000006040517f1cf993f40000000000000000000000000000000000000000000000000000000081526004016104569291906117b1565b60405180910390fd5b6104698282610dd1565b5050565b61048167bf2db9bd59bf1e3f60c01b610dce565b61049567dfffc43751867b3a60c01b610dce565b6104a96706210f4a6b4eb8c660c01b610dce565b7f000000000000000000000000000000000000000000000000000000000000000034101561052b576104e5676d572e35fc31b23a60c01b610dce565b6104f96783cf338d8e76fabf60c01b610dce565b6040517fb2f4952600000000000000000000000000000000000000000000000000000000815260040160405180910390fd5b61053f67a46453cc550b6aa460c01b610dce565b610553670d78d942758e54d860c01b610dce565b61056767818178dfad7cbad660c01b610dce565b6000600181111561057b5761057a611231565b5b600160149054906101000a900460ff16600181111561059d5761059c611231565b5b146105e8576105b6678c80ea81069f826760c01b610dce565b6040517f5994093000000000000000000000000000000000000000000000000000000000815260040160405180910390fd5b6105fc6738d710069a8a6a0c60c01b610dce565b61061067184ec8c6996386e660c01b610dce565b610624671724e4b863f32bdc60c01b610dce565b6000339080600181540180825580915050600190039060005260206000200160009091909190916101000a81548173ffffffffffffffffffffffffffffffffffffffff021916908373ffffffffffffffffffffffffffffffffffffffff16021790555061069b67639245547624276760c01b610dce565b6106af67898f34dd31f710c560c01b610dce565b3373ffffffffffffffffffffffffffffffffffffffff167fd94a33c4a354779175d16cd63d2aaa684e15d7366be045c32f546e728266bcf060405160405180910390a2565b600061070a677a9ce6967ba144c260c01b610dce565b61071e67527c54a0296b2cfe60c01b610dce565b610732670104af393cd2ff6260c01b610dce565b600254905090565b600061075067c3adc67d0d1e1c2860c01b610dce565b61076467eac2d2da3f828d4860c01b610dce565b6107786739d0842edb60213360c01b610dce565b600361ffff16905090565b610797674822282583979f2260c01b610dce565b6107ab6765c8b38ff8f1f01560c01b610dce565b6107bf672c1d67de2ea92c8860c01b610dce565b60006107d960405180602001604052806000815250610b28565b5090506107f067731d4a54c2397d5f60c01b610dce565b61080467996e29d1cf72225860c01b610dce565b806108985761081d6713f8032782eb1a3860c01b610dce565b61083167207d1f2f24c0a2fc60c01b610dce565b47600080549050600160149054906101000a900460ff16600181111561085a57610859611231565b5b6040517f2e69033c00000000000000000000000000000000000000000000000000000000815260040161088f939291906117da565b60405180910390fd5b6108ac67011c0df4e737bcb160c01b610dce565b6108c067d31da1cfd55caf1660c01b610dce565b60018060146101000a81548160ff021916908360018111156108e5576108e4611231565b5b02179055506108fe679eee5cf9ef0253d160c01b610dce565b6109126770e32f73070d0d0260c01b610dce565b60007f000000000000000000000000000000000000000000000000000000000000000073ffffffffffffffffffffffffffffffffffffffff16635d3b1d307f00000000000000000000000000000000000000000000000000000000000000007f000000000000000000000000000000000000000000000000000000000000000060037f000000000000000000000000000000000000000000000000000000000000000060016040518663ffffffff1660e01b81526004016109d7959493929190611889565b6020604051808303816000875af11580156109f6573d6000803e3d6000fd5b505050506040513d601f19601f82011682018060405250810190610a1a91906118f1565b9050610a30676c28de4a39a060e460c01b610dce565b610a44676aaa1108fc00730e60c01b610dce565b807fcd6e45c8998311cab7e9d4385596cac867e20a0587194b954fa3a731c93ce78b60405160405180910390a250505050565b6000610a8d671ec2b36882a71c9d60c01b610dce565b610aa1679999e1c9b36b29cc60c01b610dce565b610ab567c350d409310ccf0860c01b610dce565b600160009054906101000a900473ffffffffffffffffffffffffffffffffffffffff16905090565b6000610af367c546ec510d84331160c01b610dce565b610b07674c93bc19145ee42860c01b610dce565b610b1b67c4b3381a1e47270e60c01b610dce565b600163ffffffff16905090565b60006060610b406787d3b4903ddae2db60c01b610dce565b610b54670dca89b0a497d7fe60c01b610dce565b610b686744dddb8f088c1c8660c01b610dce565b6000600160149054906101000a900460ff166001811115610b8c57610b8b611231565b5b60006001811115610ba057610b9f611231565b5b149050610bb767242065f100c3fea160c01b610dce565b610bcb679d2dc0f218f95f4b60c01b610dce565b60007f000000000000000000000000000000000000000000000000000000000000000060025442610bfc919061194d565b119050610c1367fd1e77b4cd35363760c01b610dce565b610c2767e73f5307de54218c60c01b610dce565b600080600080549050119050610c476779e8eb75be25203b60c01b610dce565b610c5b6778c90823718334da60c01b610dce565b60008047119050610c7667865d5147e866fe8e60c01b610dce565b838015610c805750825b8015610c895750815b8015610c925750805b955050505050915091565b6000610cb367b10c22bef9a0ea7260c01b610dce565b610cc767531a14e1240c133d60c01b610dce565b610cdb67f19fc74cd37ca2c160c01b610dce565b7f0000000000000000000000000000000000000000000000000000000000000000905090565b6000610d176789bf3430522cd55a60c01b610dce565b610d2b670a3e4333a96afd6d60c01b610dce565b610d3f674bb0987822f7487f60c01b610dce565b60008281548110610d5357610d52611981565b5b9060005260206000200160009054906101000a900473ffffffffffffffffffffffffffffffffffffffff169050919050565b6000610d9b678f2ca4fceb51922060c01b610dce565b610daf67380355371f7a07c760c01b610dce565b610dc36751fc523bb12451cd60c01b610dce565b600080549050905090565b50565b610de5674048b9d967d671f760c01b610dce565b610df967711ad97caa23f5e560c01b610dce565b610e0d67a43b6681165ef88860c01b610dce565b6000808054905082600081518110610e2857610e27611981565b5b6020026020010151610e3a91906119df565b9050610e506739841771711913cc60c01b610dce565b610e6467ad75bbc6b01cc87f60c01b610dce565b6000808281548110610e7957610e78611981565b5b9060005260206000200160009054906101000a900473ffffffffffffffffffffffffffffffffffffffff169050610eba67585f07931e20fcc360c01b610dce565b80600160006101000a81548173ffffffffffffffffffffffffffffffffffffffff021916908373ffffffffffffffffffffffffffffffffffffffff160217905550610f0f678498f891a6912b0e60c01b610dce565b6000600160146101000a81548160ff02191690836001811115610f3557610f34611231565b5b0217905550610f4e67bf4fcef58cda0f8a60c01b610dce565b600067ffffffffffffffff811115610f6957610f68611319565b5b604051908082528060200260200182016040528015610f975781602001602082028036833780820191505090505b5060009080519060200190610fad929190611156565b50610fc267a536f600bbec515460c01b610dce565b42600281905550610fdd67d654d6b886ad11c560c01b610dce565b610ff167908cc593f996783260c01b610dce565b60008173ffffffffffffffffffffffffffffffffffffffff164760405161101790611a41565b60006040518083038185875af1925050503d8060008114611054576040519150601f19603f3d011682016040523d82523d6000602084013e611059565b606091505b5050905061107167fce387caaee30cca60c01b610dce565b611085671da0e1c07d8bcfb760c01b610dce565b806110d05761109e67794d38dce9684bcb60c01b610dce565b6040517fd219d04e00000000000000000000000000000000000000000000000000000000815260040160405180910390fd5b6110e4678395f0b1d0fd779360c01b610dce565b6110f867299399212f120ed060c01b610dce565b61110c67438675a5a0459c4c60c01b610dce565b8173ffffffffffffffffffffffffffffffffffffffff167f5b690ec4a06fe979403046eaeea5b3ce38524683c3001f662c8b5a829632f7df60405160405180910390a25050505050565b8280548282559060005260206000209081019282156111cf579160200282015b828111156111ce5782518260006101000a81548173ffffffffffffffffffffffffffffffffffffffff021916908373ffffffffffffffffffffffffffffffffffffffff16021790555091602001919060010190611176565b5b5090506111dc91906111e0565b5090565b5b808211156111f95760008160009055506001016111e1565b5090565b6000819050919050565b611210816111fd565b82525050565b600060208201905061122b6000830184611207565b92915050565b7f4e487b7100000000000000000000000000000000000000000000000000000000600052602160045260246000fd5b6002811061127157611270611231565b5b50565b600081905061128282611260565b919050565b600061129282611274565b9050919050565b6112a281611287565b82525050565b60006020820190506112bd6000830184611299565b92915050565b6000604051905090565b600080fd5b600080fd5b6112e0816111fd565b81146112eb57600080fd5b50565b6000813590506112fd816112d7565b92915050565b600080fd5b6000601f19601f8301169050919050565b7f4e487b7100000000000000000000000000000000000000000000000000000000600052604160045260246000fd5b61135182611308565b810181811067ffffffffffffffff821117156113705761136f611319565b5b80604052505050565b60006113836112c3565b905061138f8282611348565b919050565b600067ffffffffffffffff8211156113af576113ae611319565b5b602082029050602081019050919050565b600080fd5b60006113d86113d384611394565b611379565b905080838252602082019050602084028301858111156113fb576113fa6113c0565b5b835b81811015611424578061141088826112ee565b8452602084019350506020810190506113fd565b5050509392505050565b600082601f83011261144357611442611303565b5b81356114538482602086016113c5565b91505092915050565b60008060408385031215611473576114726112cd565b5b6000611481858286016112ee565b925050602083013567ffffffffffffffff8111156114a2576114a16112d2565b5b6114ae8582860161142e565b9150509250929050565b600080fd5b60008083601f8401126114d3576114d2611303565b5b8235905067ffffffffffffffff8111156114f0576114ef6114b8565b5b60208301915083600182028301111561150c5761150b6113c0565b5b9250929050565b6000806020838503121561152a576115296112cd565b5b600083013567ffffffffffffffff811115611548576115476112d2565b5b611554858286016114bd565b92509250509250929050565b600073ffffffffffffffffffffffffffffffffffffffff82169050919050565b600061158b82611560565b9050919050565b61159b81611580565b82525050565b60006020820190506115b66000830184611592565b92915050565b600080fd5b600067ffffffffffffffff8211156115dc576115db611319565b5b6115e582611308565b9050602081019050919050565b82818337600083830152505050565b600061161461160f846115c1565b611379565b9050828152602081018484840111156116305761162f6115bc565b5b61163b8482856115f2565b509392505050565b600082601f83011261165857611657611303565b5b8135611668848260208601611601565b91505092915050565b600060208284031215611687576116866112cd565b5b600082013567ffffffffffffffff8111156116a5576116a46112d2565b5b6116b184828501611643565b91505092915050565b60008115159050919050565b6116cf816116ba565b82525050565b600081519050919050565b600082825260208201905092915050565b60005b8381101561170f5780820151818401526020810190506116f4565b60008484015250505050565b6000611726826116d5565b61173081856116e0565b93506117408185602086016116f1565b61174981611308565b840191505092915050565b600060408201905061176960008301856116c6565b818103602083015261177b818461171b565b90509392505050565b60006020828403121561179a576117996112cd565b5b60006117a8848285016112ee565b91505092915050565b60006040820190506117c66000830185611592565b6117d36020830184611592565b9392505050565b60006060820190506117ef6000830186611207565b6117fc6020830185611207565b6118096040830184611207565b949350505050565b6000819050919050565b61182481611811565b82525050565b600067ffffffffffffffff82169050919050565b6118478161182a565b82525050565b600061ffff82169050919050565b6118648161184d565b82525050565b600063ffffffff82169050919050565b6118838161186a565b82525050565b600060a08201905061189e600083018861181b565b6118ab602083018761183e565b6118b8604083018661185b565b6118c5606083018561187a565b6118d2608083018461187a565b9695505050505050565b6000815190506118eb816112d7565b92915050565b600060208284031215611907576119066112cd565b5b6000611915848285016118dc565b91505092915050565b7f4e487b7100000000000000000000000000000000000000000000000000000000600052601160045260246000fd5b6000611958826111fd565b9150611963836111fd565b925082820390508181111561197b5761197a61191e565b5b92915050565b7f4e487b7100000000000000000000000000000000000000000000000000000000600052603260045260246000fd5b7f4e487b7100000000000000000000000000000000000000000000000000000000600052601260045260246000fd5b60006119ea826111fd565b91506119f5836111fd565b925082611a0557611a046119b0565b5b828206905092915050565b600081905092915050565b50565b6000611a2b600083611a10565b9150611a3682611a1b565b600082019050919050565b6000611a4c82611a1e565b915081905091905056fea2646970667358221220fce7fb11390f9a7c970ccbc0b03af2d9734a4d72df92682d198397fd7f4cd26f64736f6c63430008110033",
  "linkReferences": {},
  "deployedLinkReferences": {}
}